:100000000C9462000C948A000C948A000C948A0070
:100010000C948A000C948A000C948A000C948A0038
:100020000C948A000C948A000C948A000C948A0028
:100030000C948A000C948A000C948A000C948A0018
:100040000C944E0B0C948A000C948A000C948A0039
:100050000C948A000C948A000C948A000C948A00F8
:100060000C94980B0C948A000000000024002700D8
:100070002A0000000000250028002B0000000000DE
:1000800023002600290004040404040404040202DA
:100090000202020203030303030301020408102007
:1000A0004080010204081020010204081020000012
:1000B0000008000201000003040700000000000027
:1000C0000000B70C11241FBECFEFD8E0DEBFCDBFBC
:1000D00011E0A0E0B1E0EAEDFFE102C005900D9271
:1000E000A438B107D9F722E0A4E8B1E001C01D921D
:1000F000A137B207E1F710E0C2E6D0E004C02197D3
:10010000FE010E94C00EC136D107C9F70E94DD0C66
:100110000C94EB0F0C9400008230910538F0880F9E
:10012000991F880F991F05970197F1F7089583305C
:1001300081F028F4813099F08230A9F00895873059
:10014000A9F08830C9F08430B1F4809180008F7DAF
:1001500003C0809180008F7780938000089584B5DC
:100160008F7784BD089584B58F7DFBCF8091B000DB
:100170008F778093B00008958091B0008F7DF9CF84
:10018000CF93DF93282F30E0F901E255FF4F8491A0
:10019000F901E656FF4FD491F901EA57FF4FC49198
:1001A000CC23A1F081110E949700EC2FF0E0EE0F1C
:1001B000FF1FE458FF4FA591B491EC91ED2381E02E
:1001C00090E009F480E0DF91CF91089580E090E025
:1001D000FACF1F93CF93DF93282F30E0F901E25538
:1001E000FF4F8491F901E656FF4FD491F901EA5788
:1001F000FF4FC491CC23A9F0162F81110E949700C4
:10020000EC2FF0E0EE0FFF1FEE58FF4FA591B491D9
:100210008FB7F894EC91111108C0D095DE23DC93D0
:100220008FBFDF91CF911F910895DE2BF8CFCF9331
:10023000DF9390E0FC01E656FF4F24918A579F4FD1
:10024000FC0184918823D1F090E0880F991FFC0174
:10025000E859FF4FA591B491FC01EE58FF4FC591AD
:10026000D49161110EC09FB7F8948C91E22FE09564
:100270008E238C932881E223E8839FBFDF91CF9167
:1002800008958FB7F894EC91E22BEC938FBFF6CFE3
:100290003FB7F8948091F3019091F401A091F5019A
:1002A000B091F60126B5A89B05C02F3F19F0019625
:1002B000A11DB11D3FBFBA2FA92F982F8827BC01C0
:1002C000CD01620F711D811D911D42E0660F771FE8
:1002D000881F991F4A95D1F708958F929F92AF92E8
:1002E000BF92CF92DF92EF92FF924B015C010E948E
:1002F00048016B017C010E9448016C197D098E093F
:100300009F09683E734081059105A8F321E0821A98
:100310009108A108B10888EEC80E83E0D81EE11C40
:10032000F11C81149104A104B10429F7FF90EF900E
:10033000DF90CF90BF90AF909F908F9008950895D9
:100340000895AF92BF92CF92DF92EF92FF920F93F8
:100350001F93CF93DF936C017B018B01040F151F5B
:10036000EB015E01AE18BF08C017D10759F06991C3
:10037000D601ED91FC910190F081E02DC601099527
:10038000892B79F7C501DF91CF911F910F91FF90D4
:10039000EF90DF90CF90BF90AF900895FC018385E0
:1003A0008F3F19F061E00C94E9000895FC01808111
:1003B0009181892B39F0A281B3819C9111968C9106
:1003C0009CBD8DBD83858F3F19F060E00C94E900E2
:1003D0000895AF92BF92CF92DF92EF92FF920F9368
:1003E0001F93CF93DF93EC0188819981892B89F04A
:1003F0006EBD0DB407FEFDCFBEB48B2DDF91CF9146
:100400001F910F91FF90EF90DF90CF90BF90AF9032
:1004100008958885998511E0892B09F010E8AA24B0
:10042000A394862F812309F0A12C062F2C813D81D6
:100430004E815F8160E271EA87E090E00E949E0E4B
:10044000F22EB02EE12CC22ED12CFF2019F0C601C5
:100450000E948C008A85877F09F042C08D858F3F7E
:1004600089F0902F912381E009F480E08A1551F002
:10047000EF85F8898F89992369F19081892B808391
:10048000AA24A394E989FA898081998D892B808394
:10049000FF2019F0C6010E948C008E858F3F39F035
:1004A000EB89FC898081988D892309F0E12AE9890B
:1004B000FA899081898D8095892380838E858F3FED
:1004C00009F0BE2C88859985892BB9F5110F11117A
:1004D000BCCF93CF9081809589238083A12CD2CFEC
:1004E000E989FA898081998D892B8083FF2019F011
:1004F000C6010E948C008D858F3F49F0EF85F889F9
:100500008F89902F9123A9F09081892B8083E9898D
:10051000FA899081898D8095892380838E858F3F8C
:1005200069F2EB89FC898081988D892339F2E12A6F
:10053000C5CF908180958923E9CF1695C8CF8F923A
:100540009F92AF92BF92CF92DF92EF92FF920F9362
:100550001F93CF93DF937C014B016A01B22EA32E30
:100560000E94D601E401C80CD91CCC15DD0569F444
:10057000CB2DDA2D0C0F1D1FC017D10759F06FEFCF
:10058000C7010E94E9018993F7CF6991C7010E94D1
:10059000E901EBCFC7010E94CE0181E0DF91CF914D
:1005A0001F910F91FF90EF90DF90CF90BF90AF9091
:1005B0009F908F9008958F929F92AF92BF92CF920B
:1005C000DF92EF92FF920F931F93CF93DF937C0103
:1005D000B62EA72E6A0149010E94D601E401080D3A
:1005E000191DC017D10761F4CB2DDA2DCC0EDD1EFD
:1005F000CC15DD0551F06991C7010E94E901F8CFE2
:100600006991C7010E94E901ECCFC7010E94CE01A8
:1006100081E0DF91CF911F910F91FF90EF90DF90DC
:10062000CF90BF90AF909F908F900895FC0170E0A5
:100630008481893018F0660F771F642B8281938143
:10064000892B41F0858190E0982F8827990F90643D
:10065000682B792BCB01089508952091A501260FD1
:100660003327331F21323105ECF420911D02FC01A8
:1006700090E080E0243069F082E00895A091A50127
:100680002191AC014B575E4FA40FB52FB11D2C9398
:100690000196861798F38091A501680F6093A501D4
:1006A00080E0089581E0089510921D0281E080931A
:1006B0001C021092F70161E082E10E94E90061E012
:1006C00083E10E94E900E9EBF0E080818E7F808386
:1006D00080818D7F808388E48093B80085E4809357
:1006E000BC000895CF93DF9391E090938401882319
:1006F000B9F0C091B800D091BA008091BC008A7B5B
:100700008093BC0060E082E10E94E90060E083E148
:100710000E94E9000E945403D093BA00C093B8002D
:10072000DF91CF9108958F929F92AF92BF92CF9217
:10073000DF92EF92FF920F931F93CF93DF93D091AD
:100740004602D13208F0D7C0182FC09145020E944E
:1007500048016B017C0180911D0281116BC082E018
:1007600080931D0210931C028FEF80931B02109246
:100770001A02D0931902A5E2B2E0E9EFF1E080E0BD
:10078000D81391C01092F8018091F801CC0FC82BBA
:10079000C093F8018091F701813009F088C0109270
:1007A000F7010E9448016B017C018091F801809360
:1007B000BB0080911F0290912002A0912102B09174
:1007C0002202892B8A2B8B2BA1F00E9448010091D9
:1007D0001F021091200220912102309122026C19F7
:1007E0007D098E099F09061717072807390708F49E
:1007F00042C08091BC0083FDD8CF85EC8093BC00C3
:100800000E9448016B017C0180911D02823009F435
:1008100050C080911B028F3F09F46FC080911B0272
:10082000803209F46CC080911B02803309F469C0E6
:1008300084E026C080911F0290912002A0912102A5
:10084000B0912202892B8A2B8B2B09F484CF0E9432
:10085000480180901F0290902002A0902102B09049
:1008600022026C197D098E099F0986169706A80633
:10087000B90608F070CF80911E020E94720385E0D5
:10088000109224021092460210922302DF91CF911F
:100890001F910F91FF90EF90DF90CF90BF90AF909E
:1008A0009F908F9008959D9191938F5F69CF85EE72
:1008B000A5CF80911F0290912002A0912102B091BA
:1008C0002202892B8A2B8B2B09F49ECF0E94480190
:1008D00000911F02109120022091210230912202EA
:1008E0006C197D098E099F09061717072807390714
:1008F00008F08ACFC0CF81E0C3CF80E0C1CF82E0D3
:10090000BFCF83E0BDCF1F93CF93DF93EA01122FB8
:10091000DC0111968D919C91DC01ED91FC9102809E
:10092000F381E02D0995C817D90729F4812F0E947A
:10093000930391E0811190E0892FDF91CF911F9176
:100940000895AF92BF92CF92DF92EF92FF920F93F2
:100950001F93CF93DF9300D0CDB7DEB7DC01211119
:1009600003C018962C911897253008F043C01F96A5
:100970004D935D936D937C93529790E080E0E22ECF
:10098000F12C8E159F05B4F41A962C911A9721110B
:100990000AC0FD01E80FF91F4387452F562F672F27
:1009A00077270196EECFF701E81BF90BEA0FFB1F43
:1009B0004287F3CF6D018BE0C80ED11C16969C9137
:1009C000169717968C91179799838A83AD90BC9050
:1009D0001197A114B10409F441C019960C9110E0CB
:1009E00098012E0D3F1DD50114968D919C91821773
:1009F000930710F480E016C0F50181819281208177
:100A000031E0309323022093450210922402109289
:100A100046020115110599F421E0A701B601C501AF
:100A20000E9483040F900F90DF91CF911F910F913F
:100A3000FF90EF90DF90CF90BF90AF900895DC01D2
:100A4000ED91FC910280F381E02DA801BE016F5F62
:100A50007F4F09950817190769F6DECF1296ED91B9
:100A6000FC911397309731F214962D913C91159784
:100A700019960C9110E02330310571F48E7F898333
:100A80009A830F5F1F4F9E012F5F3F4FA701B60153
:100A9000CF010E94DB02C6CF2115310519F49F77E3
:100AA0009983F1CF2230310511F49068F9CF2130CC
:100AB000310549F79F779064F3CFEF92FF921F9330
:100AC000CF93DF93CDB7DEB763970FB6F894DEBF51
:100AD0000FBECDBF7C01162F40E069E00E941603D7
:100AE000F7014281538120813181188A198A1A8A3B
:100AF0001B8A5C834B833A83298323E030E03E8367
:100B00002D8321E02A8798878F831B862987412F91
:100B100050E070E060E020E0CE0101960E94A10468
:100B200063960FB6F894DEBF0FBECDBFDF91CF91B5
:100B30001F91FF90EF900895CF93DF93EC018B818D
:100B40008823A1F0888191E090932302809345024D
:100B5000109224021092460281E00E94930391E0D9
:100B6000811190E0892FDF91CF9108951092ED01CE
:100B70001092EC0110922402109246020E9454033B
:100B80008FE991E09093EB018093EA0180EA91E094
:100B90009093E9018093E80181E08B83CE010E946C
:100BA0009C05982F8111CECFDDCF0895E091ED0106
:100BB0008091EC01E81730F4F0E0E853FE4F8081BB
:100BC00090E008958FEF9FEF08959091ED0180914F
:100BD000EC012FEF3FEF981748F4E92FF0E0E853CE
:100BE000FE4F208130E09F5F9093ED01C901089591
:100BF0008091EC019091ED01891B990B0895CF92A2
:100C0000DF92EF92FF920F931F93CF93DF937C01BC
:100C1000CB018A0120912302222389F0EB016B0191
:100C2000C40ED51ECC15DD0569F06991D701ED9193
:100C3000FC910190F081E02DC7010995F3CF642F5D
:100C40000E942D03C801DF91CF911F910F91FF905A
:100C5000EF90DF90CF900895CF93DF931F92CDB7A1
:100C6000DEB76983209123022223F9F02091460206
:100C7000203258F021E030E0FC013383228390E001
:100C800080E00F90DF91CF91089580912402E82FAA
:100C9000F0E0EB5DFD4F998190838F5F809324029C
:100CA0008093460281E090E0ECCF61E0CE010196B6
:100CB0000E942D03F7CF90E080E00895FC010190A1
:100CC0000020E9F73197AF01481B590BBC0187E4BD
:100CD00092E00C94A1012F923F924F925F926F92FB
:100CE0007F928F929F92AF92BF92CF92DF92EF92BC
:100CF000FF920F931F93CF93DF9300D000D01F92EA
:100D0000CDB7DEB77C01DC0118960C914C01BBE03D
:100D10008B0E911CFC019681878199838A832080A8
:100D200031802114310409F424C1418550E0D101FE
:100D300014968D919C9115978417950708F46CC1B2
:100D40008C9191E0909323028093450210922402AB
:100D50001092460220E0BE016F5F7F4FC1010E94EA
:100D60008304882309F458C1E02FF0E0FC83EB836F
:100D7000B12CA12C01E08B819C81A816B90608F04A
:100D800018C1D10114968D919C91CB80DC80CA183A
:100D9000DB088C159D0508F46C01F101F081FD83E1
:100DA0000E9448012B013C0180911D02811172C0FB
:100DB0001C2D113208F010E200931D0221E08B81FE
:100DC0009C818C199D09A816B90608F420E020938F
:100DD0001C028FEF80931B0210921A02810F8093E6
:100DE00019020093F8019091F8018D81880F892BE9
:100DF0008093F8018091F701813009F091C0109241
:100E0000F7010E9448012B013C018091F801809379
:100E1000BB0080911F0290912002A0912102B0910D
:100E20002202892B8A2B8B2BA1F00E944801209152
:100E30001F02309120024091210250912202641938
:100E4000750986099709261737074807590708F4CF
:100E500042C08091BC0083FDD8CF95EC9093BC003C
:100E60000E9448012B013C0180911D02813009F450
:100E70005BC080911A02811710F410911A02E9EFF9
:100E8000F1E0A8ECB1E080E0811751F191919D93E0
:100E90008F5FFACF80911F0290912002A0912102D2
:100EA000B0912202892B8A2B8B2B09F47DCF0E94D3
:100EB000480120911F02309120024091210250915F
:100EC000220264197509860997092617370748070A
:100ED000590708F069CF80911E020E94720310E04A
:100EE0001092ED011093EC011C151D0409F094C043
:100EF00034016A0C7B1C2301C201861997098C15E9
:100F00009D05A0F5F10181819281DC01ED91FC91BB
:100F10000284F385E02D0995F20181932F01ECCF36
:100F2000A5EEA093BC009CCF80911F02909120025F
:100F3000A0912102B0912202892B8A2B8B2B09F4DC
:100F400093CF0E94480120911F02309120024091CE
:100F50002102509122026419750986099709261702
:100F600037074807590708F07FCFB5CFAC0CBD1C39
:100F700002CFD7010280F381E02D309709F44CC0F5
:100F800014962D913C91159710E019964C9150E0D4
:100F90002330310561F5816089839A834F5F5F4F0C
:100FA0009401BE016F5F7F4FCF010E949F02882393
:100FB00099F1F701408550E030E020E060E070E01A
:100FC000CB01241735075CF5982F872F762F6627DE
:100FD000D7011A96EC91E1111AC0FA01E21BF30B4A
:100FE000EE0DFF1DE2856E2B2F5F3F4FEACF2115DF
:100FF000310519F490689983D3CF2230310511F46B
:101000009F77F9CF2130310559F6906CF4CFF70175
:10101000E20FF31FE385E7CF6FEF7FEFCB010F9078
:101020000F900F900F900F90DF91CF911F910F9124
:10103000FF90EF90DF90CF90BF90AF909F908F90F8
:101040007F906F905F904F903F902F9008958F9278
:101050009F92AF92BF92CF92DF92EF92FF920F9347
:101060001F93CF93DF93EC014A015B018881998143
:101070000E946B062A8101E010E002C0000F111FE0
:101080002A95E2F701501109012E000C220B330BB7
:10109000AB81680179010A2E04C0CC0CDD1CEE1C6A
:1010A000FF1C0A94D2F7C094D094E094F094C62226
:1010B000D722E822F922E881F981B901A801482163
:1010C00059216A217B2104C0440F551F661F771FD9
:1010D000AA95D2F74C295D296E297F292085CF0159
:1010E000DF91CF911F910F91FF90EF90DF90CF9004
:1010F000BF90AF909F908F900C94A1047F928F929D
:101100009F92AF92BF92CF92DF92EF92FF920F9396
:101110001F93CF93DF93CDB7DEB7AE970FB6F8949A
:10112000DEBF0FBECDBF7C01062F772473946830DD
:1011300008F4712C472D60E0C7010E941603F701E7
:1011400082809380A080B1801BA21CA21DA21EA23F
:101150009F8A8E8ABD8AAC8A23E0C22ED12CD98E7A
:10116000C88E11E01D8F9B8F8A8F1E8E1C8F472D7E
:1011700066E0C7010E941603188A198A1A8A1B8A18
:101180009C828B82BA82A982DE82CD821A8798875E
:101190008F831B8619870770CE0144969CA78BA767
:1011A0001DA70EA7439798A78FA319A70AA740E0EA
:1011B00050E0BA018A960E94270840E050E0BA0148
:1011C000CE0187960E942708AE960FB6F894DEBF30
:1011D0000FBECDBFDF91CF911F910F91FF90EF9088
:1011E000DF90CF90BF90AF909F908F907F900895A9
:1011F000FC01862F918D9F3F21F0CF014C960C94DE
:101200007E0895899F3F19F461E00C9417010895B9
:10121000EF92FF920F931F93CF93DF93CDB7DEB77B
:1012200067970FB6F894DEBF0FBECDBF7C01162FB7
:10123000042F41E0683008F440E069E0C7010E94F3
:101240001603F7014281538120813181188A198A5E
:101250001A8A1B8A5C834B833A83298323E030E01C
:101260003E832D8321E02A8798878F831B862987D9
:10127000CE0101969D8B8C8B2E8B17701F8B402F70
:1012800050E070E060E043960E94270867960FB632
:10129000F894DEBF0FBECDBFDF91CF911F910F91AC
:1012A000FF90EF900895EF92FF920F931F93CF93CB
:1012B000DF93EC01862F998D9F3F51F0CE014C9624
:1012C000DF91CF911F910F91FF90EF900C9408093F
:1012D0009D89642F9F3F51F1588D21E030E0B90185
:1012E00002C0660F771F8A95E2F7CB01413031F5D6
:1012F000852B888F60E08F890E94E900088DFD882A
:10130000EE8818E0602F661F6627661F8E2D0E94EC
:10131000E900000F61E08F2D0E94E90060E08F2D51
:101320000E94E900115071F761E08F89DF91CF9140
:101330001F910F91FF90EF900C94E9008095852309
:10134000D8CFCF93DF93EC0140E06E810E94530928
:1013500041E06E81CE010E94530940E06E81CE01D2
:101360000E9453098BE891E00197F1F7DF91CF914B
:101370000895AF92BF92CF92DF92EF92FF920F93B8
:101380001F93CF93DF93CDB7DEB763970FB6F89473
:10139000DEBF0FBECDBF8C01FC01818D9801295F9E
:1013A0003F4F7901A62EB12CD12CC12C8F3F09F4CF
:1013B00082C068013CE1C30ED11C40E069E0C60177
:1013C0000E941603F801468D578D248D358D188A9D
:1013D000198A1A8A1B8A5C834B833A83298323E008
:1013E00030E03E832D8321E02A8798878F831B86F8
:1013F0002987CE0101960E946B06F70130E020E0BC
:10140000EE24E394F12C4191C701042E01C0880F12
:101410000A94EAF780956823C501022E02C09595CB
:1014200087950A94E2F78170992701C0880F4A9541
:10143000EAF7682B2F5F3F4F2430310521F7F80181
:101440008681970102C0220F331F8A95E2F7B22EE0
:10145000B094B6226B2DC6010E945D05F80186810D
:10146000B70101C0660F8A95EAF7B62A6B2DC6014F
:101470000E945D05F801868101C0EE0C8A95EAF7AD
:10148000E0946E2D6B21C6010E945D058BE891E012
:101490000197F1F763960FB6F894DEBF0FBECDBF8C
:1014A000DF91CF911F910F91FF90EF90DF90CF9040
:1014B000BF90AF900895F70161917F01C8010E942C
:1014C000F808A5010C2C02C0559547950A94E2F73F
:1014D0004170F70131976081C8010E945309FFEF05
:1014E000CF1ADF0A24E0C216D10429F7C8010E94EE
:1014F000A109D0CFCF92DF92EF92FF920F931F936B
:10150000CF93DF93EC01F62E6C810E9453096D811D
:101510006F3F21F040E0CE010E9453090F2D10E0F3
:101520008F8584FF2CC06E0187E0C80ED11CF12C82
:10153000E12CF60161916F01CE010E94F808A8012B
:101540000E2C02C0559547950A94E2F74170F601BA
:1015500031976081CE010E945309FFEFEF1AFF0A15
:1015600088E0E816F10429F7CE01DF91CF911F91B1
:101570000F91FF90EF90DF90CF900C94A109B801EC
:1015800084E0759567958A95E1F7CE010E94B909C7
:101590006F2DCE01DF91CF911F910F91FF90EF90B2
:1015A000DF90CF900C94B90940E0682F87E492E077
:1015B0000C947A0ACF93DF93CDB7DEB728970FB696
:1015C000F894DEBF0FBECDBF98E0E6E0F1E0DE01AB
:1015D000119601900D929A95E1F790915A02981701
:1015E00008F48FEF90E0880F991F21E030E02C0F76
:1015F0003D1F820F931FFC018081806828960FB6E3
:10160000F894DEBF0FBECDBFDF91CF910C94D40A0A
:1016100081E00E94D40A8BE39FE10197F1F70895DE
:1016200041E00E947A0A81E090E0089585ED809380
:10163000BC0080911F0290912002A0912102B091E4
:1016400022020796A11DB11D23E0B695A795979597
:1016500087952A95D1F72091BC0024FD03C01092F4
:101660001D02089540911F025091200260912102B5
:1016700070912202452B462B472B69F30097A10559
:10168000B10541F02AE22A95F1F700C00197A109BE
:10169000B109E1CF80911E020C9472031F920F9248
:1016A0000FB60F9211242F933F938F939F93AF9375
:1016B000BF938091EF019091F001A091F101B09161
:1016C000F2013091EE0123E0230F2D3758F50196FA
:1016D000A11DB11D2093EE018093EF019093F001C5
:1016E000A093F101B093F2018091F3019091F40184
:1016F000A091F501B091F6010196A11DB11D809355
:10170000F3019093F401A093F501B093F601BF911A
:10171000AF919F918F913F912F910F900FBE0F909E
:101720001F90189526E8230F0296A11DB11DD2CF58
:101730001F920F920FB60F9211242F933F934F9346
:101740005F936F937F938F939F93AF93BF93EF9329
:10175000FF938091B900887F803609F44AC0F0F584
:10176000883209F4A7C018F5803109F49BC0B8F499
:10177000882309F4F9C0883009F494C0FF91EF91EF
:10178000BF91AF919F918F917F916F915F914F9199
:101790003F912F910F900FBE0F901F901895883199
:1017A00009F488C0803251F780931B0214C0803442
:1017B00009F49DC040F48033B9F38833F9F680937F
:1017C0001B0285ECB0C0803509F485C0883509F46A
:1017D00096C0883499F60E94160BD0CF883909F448
:1017E0008CC038F5883729F050F4883611F08037EE
:1017F00029F683E080931D021092C70157C08838F4
:1018000009F47BC0803919F0803809F0B7CF809196
:10181000C701803208F071C0E091C70181E08E0FEE
:101820008093C7018091BB00F0E0E955FE4F8083B3
:101830003DC0803B39F0E0F4803A09F479C0883A41
:1018400009F09CCF84E080931D021092A6011092B3
:10185000A501E091EA01F091EB0109958091A501C4
:1018600081110FC081E08093A5011092850109C00C
:10187000803C09F4A6CF883C09F4A3CF883B09F04B
:101880007DCFE091A60181E08E0F8093A601F0E06C
:10189000EB57FE4F80818093BB009091A601809111
:1018A000A50129C08091F8018093BB0085EC80934D
:1018B000BC0064CF90911A0280911902981758F5D4
:1018C000E0911A0281E08E0F80931A02F0E0E75057
:1018D000FE4F8081E9CFE0911A0281E08E0F809364
:1018E0001A028091BB00F0E0E750FE4F8083909198
:1018F0001A02809119029817C8F285E8D8CFE091B2
:101900001A0281E08E0F80931A028091BB00F0E0F2
:10191000E750FE4F808380911C0281115CCF81E0F3
:101920008093F70184EA8093BC0010921D0226CFB9
:1019300085EC8093BC0010921D028091C70180321B
:1019400030F4E091C701F0E0E955FE4F108260915C
:10195000C70170E0E091E801F091E90187EA91E0C8
:1019600009951092C7010ACF10921B0234CFE7E409
:10197000F2E01382128282E191E091838083158EDE
:10198000148E178E168E88E080A38CE084838FEFF0
:1019900085839BE0968395E0978394E0908793E01E
:1019A000918792E092871386148615861686818F1A
:1019B000878B868B858B17860895789484B5826093
:1019C00084BD84B5816084BD85B5826085BD85B5E3
:1019D000816085BD80916E00816080936E00109261
:1019E00081008091810082608093810080918100DC
:1019F000816080938100809180008160809380006D
:101A00008091B10084608093B1008091B0008160CA
:101A10008093B00080917A00846080937A008091F6
:101A20007A00826080937A0080917A00816080934E
:101A30007A0080917A00806880937A001092C100C9
:101A400060E086E00E94170160E089E00E941701D3
:101A500061E087E00E94170161E088E00E941701C1
:101A6000109160021F3F09F4FFC0E0906102F09006
:101A7000620286E090E00E94C60EEC011883FA82B2
:101A8000E9821B8280E290E09D838C83D093640284
:101A9000C09363021092ED011092EC0110922402A7
:101AA000109246020E9454038FE991E09093EB015B
:101AB0008093EA0180EA91E09093E9018093E80144
:101AC00081E08B83CE010E949C05882309F47DC0B0
:101AD00067E083E692E00E947E0841E067E083E6EB
:101AE00092E00E940809CEE4D2E0699187E492E096
:101AF0000E94F80882E0C235D807B9F760914B021E
:101B000083E692E00E947E0860914D0283E692E0B7
:101B10000E947E088091560288608093560282E07F
:101B200080935A0210925B028BE39DE00197F1F7DC
:101B300040E060914B0287E492E00E94530940E04C
:101B400060914D0287E492E00E94530960914C023B
:101B50006F3F29F040E087E492E00E9453098091B2
:101B6000560284FDA9C063E087E492E00E94B909AF
:101B7000CBE4D6E4CE010197F1F763E087E492E08D
:101B80000E94B9092197F1F763E087E492E00E948F
:101B9000B90983E592E00197F1F762E087E492E00A
:101BA0000E94B9098091560280620E94D40A84E0A2
:101BB000809357028CE00E94D40A0E94080B82E0B6
:101BC0008093580286E00E94D40A86E00E94C000FA
:101BD000019709F087C080E00E94DA0A8AE191E06B
:101BE0000E945E0681E00E94DA0A87E291E00E948C
:101BF0005E0660E087E00E94E90068EE73E080E046
:101C000090E00E946D010E94080BC0E0D0E089E0E6
:101C10000E94C000019709F072C080E00E94DA0AB9
:101C200081E591E00E945E0681E00E94DA0A8FE57C
:101C300091E00E945E0661E087E00E94E90060E0BA
:101C400088E00E94E90068EB7BE080E090E00E9481
:101C50006D0160E087E00E94E9000E94080B209778
:101C6000B1F20E940000D3CF80915C0261E08F3F0F
:101C700091F080915D020E94170161E080915C0209
:101C80000E94170161E080915E020E94170180E8C6
:101C900080935F023FCF80914B020E941701809199
:101CA0004C028F3F19F061E00E94170161E08091C2
:101CB0004D020E9417012ECF80620E94D40A8BE44D
:101CC00096E40197F1F78091560280620E94D40A4F
:101CD00083E592E00197F1F78091560280620E94BD
:101CE000D40A60CF80E00E94DA0A88E391E00E9483
:101CF0005E0681E00E94DA0A83E491E078CF80E01A
:101D00000E94DA0A88E691E00E945E0681E00E9465
:101D1000DA0A86E791E00E945E0660E087E00E94B2
:101D2000E90061E088E00E94E90068EB7BE080E088
:101D300090E00E946D0160E088E08DCFA1E21A2E54
:101D4000AA1BBB1BFD010DC0AA1FBB1FEE1FFF1F5F
:101D5000A217B307E407F50720F0A21BB30BE40BAF
:101D6000F50B661F771F881F991F1A9469F76095F6
:101D70007095809590959B01AC01BD01CF010895B0
:101D8000EE0FFF1F0590F491E02D09940F931F9320
:101D9000CF93DF938230910510F482E090E0E091E0
:101DA0006F02F091700230E020E0B0E0A0E03097E8
:101DB00099F42115310509F44AC0281B390B243048
:101DC0003105D8F58A819B816115710589F1FB0187
:101DD00093838283FE0111C040815181028113816E
:101DE00048175907E0F04817590799F4109761F020
:101DF00012960C93129713961C933296CF01DF9193
:101E0000CF911F910F91089500936F02109370026C
:101E1000F4CF2115310551F04217530738F0A901CD
:101E2000DB019A01BD01DF01F801C1CFEF01F9CF5C
:101E30009093700280936F02CDCFFE01E20FF31FEB
:101E4000819391932250310939832883D7CF2091F0
:101E50006D0230916E02232B41F4209102013091EA
:101E6000030130936E0220936D02209100013091A6
:101E700001012115310541F42DB73EB74091040110
:101E800050910501241B350BE0916D02F0916E021B
:101E9000E217F307A0F42E1B3F0B2817390778F041
:101EA000AC014E5F5F4F2417350748F04E0F5F1FA0
:101EB00050936E0240936D02819391939FCFF0E017
:101EC000E0E09CCFCF93DF930097E9F0FC013297DD
:101ED00013821282A0916F02B0917002ED0130E086
:101EE00020E01097A1F420813181820F931F20916F
:101EF0006D0230916E022817390709F061C0F09326
:101F00006E02E0936D02DF91CF910895EA01CE1742
:101F1000DF07E8F54A815B819E0141155105B1F764
:101F2000E901FB83EA8349915991C40FD51FEC174E
:101F3000FD0761F4808191810296840F951FE9016C
:101F400099838883828193819B838A83F0E0E0E098
:101F500012968D919C9113970097B9F52D913C9114
:101F60001197CD010296820F931F20916D0230913F
:101F70006E022817390739F6309751F51092700222
:101F800010926F02B0936E02A0936D02BCCFD38308
:101F9000C28340815181840F951FC817D90761F40E
:101FA0004E5F5F4F88819981480F591F518340834D
:101FB0008A819B81938382832115310509F0B0CFFB
:101FC000F0937002E0936F029ECFFD01DC01C0CF61
:0A1FD00013821282D7CFF894FFCFDE
:101FDA00000071028000000040001400540000005C
:101FEA000000100BA1015B062C0346494E474552DF
:101FFA005052494E54200053454E534F5220434F9E
:10200A004E4E454354454400506C7A2063686563DC
:10201A006B200073656E736F7220776972696E67E1
:10202A0000444F4F5220554E4C4F434B45440057A6
:10203A00454C4C434F4D450041434345535320447F
:10204A00454E49454400444F4F52204953204C4F76
:04205A00434B2E00C6
:00000001FF
