:100000000C9463000C948B000C948B000C94AF0840
:100010000C94AF080C94AF080C948B000C948B00DC
:100020000C948B000C948B000C948B000C948B0024
:100030000C948B000C948B000C948B000C948B0014
:100040000C94EE060C948B000C945E070C9438070D
:100050000C948B000C948B000C948B000C948B00F4
:100060000C9490070C948B000000000024002700E3
:100070002A0000000008000201000003040700003D
:1000800000000000000000000000230026002900FE
:1000900000000000250028002B00040404040404D0
:1000A0000404020202020202030303030303010227
:1000B00004081020408001020408102001020408F6
:1000C00010202709200E11241FBECFEFD8E0DEBF7D
:1000D000CDBF12E0A0E0B1E0EEE9FCE102C0059086
:1000E0000D92AA37B107D9F724E0AAE7B2E001C020
:1000F0001D92AD38B207E1F710E0C2E6D0E004C0CF
:100100002197FE010E943C0EC136D107C9F70E941B
:100110003D0A0C94420E0C940000DF92EF92FF9285
:100120000F931F93CF93DF93EC0180915C04909128
:100130005D046981DC01ED91FC910190F081E02D7D
:10014000099580915C0490915D04DC01ED91FC9136
:100150000190F081E02D6881099580915C04909177
:100160005D04DC01ED91FC910190F081E02D6A814C
:10017000099580915C0490915D04DC01ED91FC9106
:100180000190F081E02D6B81099580915C04909144
:100190005D04DC01ED91FC910190F081E02D6C811A
:1001A000099580915C0490915D04DC01ED91FC91D6
:1001B0000190F081E02D6D81099580915C04909112
:1001C0005D04DC01ED91FC910190F081E02D6E81E8
:1001D00009950F8118850E5F1F4F80915C049091E7
:1001E0005D04E12EFF24DC01ED91FC910190F08192
:1001F000E02D6E2D099580915C0490915D04DC01E9
:10020000ED91FC910190F081E02D602F09950E0D8C
:100210001F2D111D8E81080F111DD12C80915C04A2
:1002200090915D04DC01ED91FC910190F081E02D55
:10023000ED2CF12C2F813885E216F30660F4EC0EDC
:10024000FD1ED70119966C910995F7018185080F5C
:10025000111DD394E3CF612F099580915C04909197
:100260005D04DC01ED91FC910190F081E02D602FA7
:10027000DF91CF911F910F91FF90EF90DF90099444
:1002800090E0FC01EE58FF4F2491FC01E255FF4F36
:100290003491FC01E656FF4FE491EE23C9F022238E
:1002A00039F0233001F1A8F4213019F1223029F17D
:1002B000F0E0EE0FFF1FE057FF4FA591B4918FB70D
:1002C000F894EC91611126C030953E233C938FBF8A
:1002D00008952730A9F02830C9F0243049F78091DB
:1002E00080008F7D03C0809180008F778093800095
:1002F000DFCF84B58F7784BDDBCF84B58F7DFBCF17
:100300008091B0008F778093B000D2CF8091B00001
:100310008F7DF9CF3E2BDACFCF93DF9390E0FC01B6
:10032000E255FF4F249186569F4FFC01849188230C
:10033000D1F090E0880F991FFC01E859FF4FA5917B
:10034000B491FC01E057FF4FC591D49161110EC0EB
:100350009FB7F8948C91E22FE0958E238C9328819F
:10036000E223E8839FBFDF91CF9108958FB7F89480
:10037000EC91E22BEC938FBFF6CF3FB7F8948091CE
:100380007D0390917E03A0917F03B091800326B5F9
:10039000A89B05C02F3F19F00196A11DB11D3FBFBD
:1003A000BA2FA92F982F8827BC01CD01620F711D8C
:1003B000811D911D42E0660F771F881F991F4A9586
:1003C000D1F708958F929F92AF92BF92CF92DF9212
:1003D000EF92FF924B015C010E94BD016B017C0119
:1003E0000E94BD016C197D098E099F09683E73400A
:1003F00081059105A8F321E0821A9108A108B108AE
:1004000088EEC80E83E0D81EE11CF11C8114910413
:10041000A104B10429F7FF90EF90DF90CF90BF9037
:10042000AF909F908F900895EF92FF920F931F933C
:10043000CF93DF93EC01F12CE12C10E000E08091F0
:100440005C0490915D04DC01ED91FC910084F185E8
:10045000E02D0995892B99F461E070E080E090E04F
:100460000E94E201BFEFEB1AFB0A88EEE81683E078
:10047000F80628F38FEF37C002E010E0E0CF80915C
:100480005C0490915D04DC01ED91FC910284F385A4
:10049000E02D09950930110508F03CC0F801ED5A2E
:1004A000FD4F0C943C0E5C026A027A027A027A02D8
:1004B0007A027F02810284028F3E09F0C0CF188247
:1004C0008983C8010196065F1F4F0034110550F45F
:1004D0008C01B5CF28813981282B3983288321309D
:1004E0003F4E51F28EEFDF91CF911F910F91FF9010
:1004F000EF900895FE01E00FF11F8083E2CF8E831D
:10050000E0CF1F828887DDCF2F813885282B388761
:100510002F83D7CFFE01E00FF11F80832F81388515
:10052000C80108978217930761F680E0DCCF089531
:100530000895AF92BF92CF92DF92EF92FF920F9306
:100540001F93CF93DF936C017B018B01040F151F69
:10055000EB015E01AE18BF08C017D10759F06991D1
:10056000D601ED91FC910190F081E02DC601099535
:10057000892B79F7C501DF91CF911F910F91FF90E2
:10058000EF90DF90CF90BF90AF900895FC01538D16
:10059000448D252F30E0842F90E0821B930B54175D
:1005A00010F0CF96089501970895FC01918D828DEA
:1005B000981761F0A28DAE0FBF2FB11D5D968C9183
:1005C000928D9F5F9F73928F90E008958FEF9FEFC2
:1005D0000895FC01918D828D981731F0828DE80F7E
:1005E000F11D858D90E008958FEF9FEF0895FC0138
:1005F000918D228D892F90E0805C9F4F821B910905
:100600008F739927089581E893E00E94F70221E013
:10061000892B09F420E0822F089580E090E0892B57
:1006200029F00E94030381110C9400000895FC013D
:10063000A48DA80FB92FB11DA35ABF4F2C91848D43
:1006400090E001968F739927848FA689B7892C93A0
:10065000A089B1898C91837080648C93938D848DF3
:10066000981306C00288F389E02D80818F7D8083F6
:100670000895EF92FF920F931F93CF93DF93EC01B6
:1006800081E0888F9B8D8C8D98131AC0E889F98939
:10069000808185FF15C09FB7F894EE89FF8960833C
:1006A000E889F98980818370806480839FBF81E0BD
:1006B00090E0DF91CF911F910F91FF90EF900895FF
:1006C000F62E0B8D10E00F5F1F4F0F731127E02EDA
:1006D0008C8D8E110CC00FB607FCFACFE889F98912
:1006E000808185FFF5CFCE010E941703F1CFEB8DFE
:1006F000EC0FFD2FF11DE35AFF4FF0829FB7F894E6
:100700000B8FEA89FB8980818062CFCFCF93DF9303
:10071000EC01888D8823B9F0AA89BB89E889F98919
:100720008C9185FD03C0808186FD0DC00FB607FC4E
:10073000F7CF8C9185FFF2CF808185FFEDCFCE0181
:100740000E941703E9CFDF91CF910895089520917A
:10075000FB02260F3327331F21323105ECF42091A1
:100760004403FC0190E080E0243069F082E00895C9
:10077000A091FB022191AC0145525D4FA40FB52F12
:10078000B11D2C930196861798F38091FB02680F98
:100790006093FB0280E0089581E008951092440385
:1007A00081E08093430310921E0361E082E10E9486
:1007B000400161E083E10E944001E9EBF0E08081CB
:1007C0008E7F808380818D7F808388E48093B800D2
:1007D00085E48093BC000895CF93DF9391E09093DC
:1007E000DA028823B9F0C091B800D091BA008091A4
:1007F000BC008A7B8093BC0060E082E10E944001E3
:1008000060E083E10E9440010E94CE03D093BA00D1
:10081000C093B800DF91CF9108950895E0917303DC
:1008200080917203E81730F4F0E0E654FD4F8081C8
:1008300090E008958FEF9FEF08959091730380915A
:1008400072032FEF3FEF981748F4E92FF0E0E654DA
:10085000FD4F208130E09F5F90937303C90108959D
:100860008091720390917303891B990B0895CF9225
:10087000DF92EF92FF920F931F93CF93DF937C0150
:10088000CB018A0120914A03222389F0EB016B01FD
:10089000C40ED51ECC15DD0569F06991D701ED9127
:1008A000FC910190F081E02DC7010995F3CF642FF1
:1008B0000E94A703C801DF91CF911F910F91FF9074
:1008C000EF90DF90CF900895CF93DF931F92CDB735
:1008D000DEB7698320914A032223F9F02091700347
:1008E000203258F021E030E0FC013383228390E095
:1008F00080E00F90DF91CF91089580917103E82FF0
:10090000F0E0E55BFC4F998190838F5F80937103EA
:100910008093700381E090E0ECCF61E0CE0101961E
:100920000E94A703F7CFCF92DF92EF92FF920F932F
:100930001F93CF93DF93FC01C48121E020934A03EE
:10094000C0936B0310927103109270038385682B20
:100950008EE194E00E946404D0917003D13208F0DB
:1009600092C00E94BD016B017C0180914403811102
:1009700065C082E08093440381E0809343038FEF5E
:100980008093420310924103D0934003ABE4B3E061
:10099000E0E2F3E080E0D81385C010921F0380915D
:1009A0001F03CC0FC82BC0931F0380911E038130FF
:1009B00009F07CC010921E030E94BD016B017C01F6
:1009C00080911F038093BB00809146039091470361
:1009D000A0914803B0914903892B8A2B8B2B99F066
:1009E0000E94BD01009146031091470320914803E6
:1009F000309149036C197D098E099F090617170765
:100A000028073907E0F18091BC0083FDD9CF85EC40
:100A10008093BC000E94BD016B017C018091440366
:100A2000823009F445C0809142038F3F61F180918B
:100A30004203803241F18091420325C080914603F8
:100A400090914703A0914803B0914903892B8A2BC9
:100A50008B2B09F48ACF0E94BD01009146031091AF
:100A6000470320914803309149036C197D098E0991
:100A70009F09061717072807390708F076CF8091D6
:100A800045030E94EC0310927103109270031092C0
:100A90004A03DF91CF911F910F91FF90EF90DF906C
:100AA000CF9008959D9191938F5F75CF85EEB0CFD4
:100AB0008091460390914703A0914803B091490368
:100AC000892B8A2B8B2B09F4A9CF0E94BD010091A1
:100AD00046031091470320914803309149036C1954
:100AE0007D098E099F09061717072807390708F09F
:100AF00095CFC5CF2091760330917703281739071A
:100B000071F49091740380917503981741F0E0910E
:100B10007403F0E0E658FD4F808190E008958FEF78
:100B20009FEF0895EF92FF920F931F93CF93DF9360
:100B3000DC015C96ED90FC905D97E114F10479F492
:100B400081E090E013969C938E93129790E080E062
:100B5000DF91CF911F910F91FF90EF9008955196E3
:100B6000ED91FC91529750968C915097982F9095BB
:100B70000FB75E962C915E97122F127021FD609533
:100B8000F8942081112319F1282B2083E701219764
:100B9000F1F728E0462F50E0308160FF1AC0382B73
:100BA0003083E7012197F1F7BA01759567952150D8
:100BB00089F7112381F08081892380830FBF5C96A0
:100BC0008D919C910197F1F781E090E0C1CF2923AD
:100BD000DCCF3923E5CF9081892BEFCF20917603AD
:100BE000309177032817390761F4809175032091BC
:100BF000740390E0805C9F4F821B91098F7399274B
:100C0000089590E080E00895209176033091770375
:100C100028173907B9F490917403809175039817D8
:100C200089F0E0917403F0E0E658FD4F8081209157
:100C3000740330E02F5F3F4F2F73332720937403EB
:100C400090E008958FEF9FEF089590E080E0089581
:100C50000F931F93CF938C01C62F0E9493046C2F88
:100C60006460C8010E9493046C2F6B7FC8010E94CE
:100C7000930483EC90E00197F1F7CF911F910F91CE
:100C800008950F931F93CF93DF938C01D62FC42F1A
:100C9000607F642B0E94280680E1D89FB001112458
:100CA0006C2BC801DF91CF911F910F910C942806F6
:100CB000CF93DF93CDB7DEB728970FB6F894DEBF9A
:100CC0000FBECDBF98E0E0E0F1E0DE0111960190AB
:100CD0000D929A95E1F790916A04981708F48FEFB6
:100CE00090E0880F991F21E030E02C0F3D1F820F0C
:100CF000931FFC016081606840E082E694E02896E2
:100D00000FB6F894DEBF0FBECDBFDF91CF910C942C
:100D1000410641E00E94410681E090E00895FB0118
:100D200001900020E9F73197AF01461B570BDC011A
:100D3000ED91FC910280F381E02D0994BC0182E6E3
:100D400094E00C948F06CF93DF93BC0181E893E08D
:100D50000E948F06EC016AE471E081E893E00E9452
:100D60008F068C0F9D1FDF91CF91089585ED8093A5
:100D7000BC008091460390914703A0914803B09135
:100D800049030796A11DB11D23E0B695A795979538
:100D900087952A95D1F72091BC0024FD03C01092BD
:100DA00044030895409146035091470360914803DE
:100DB00070914903452B462B472B69F30097A105FA
:100DC000B10541F02AE22A95F1F700C00197A10987
:100DD000B109E1CF809145030C94EC031F920F926F
:100DE0000FB60F9211242F933F938F939F93AF933E
:100DF000BF938091790390917A03A0917B03B09186
:100E00007C033091780323E0230F2D3758F50196AA
:100E1000A11DB11D209378038093790390937A03E9
:100E2000A0937B03B0937C0380917D0390917E031C
:100E3000A0917F03B09180030196A11DB11D809305
:100E40007D0390937E03A0937F03B0938003BF91B3
:100E5000AF919F918F913F912F910F900FBE0F9067
:100E60001F90189526E8230F0296A11DB11DD2CF21
:100E70001F920F920FB60F9211242F933F934F930F
:100E80005F936F937F938F939F93AF93BF93EF93F2
:100E9000FF9381E893E00E941703FF91EF91BF91C8
:100EA000AF919F918F917F916F915F914F913F9102
:100EB0002F910F900FBE0F901F9018951F920F92B9
:100EC0000FB60F9211242F938F939F93EF93FF935D
:100ED000E0919103F09192038081E0919703F0916A
:100EE000980382FD1BC0908180919A038F5F8F735E
:100EF00020919B03821741F0E0919A03F0E0EF57B5
:100F0000FC4F958F80939A03FF91EF919F918F9162
:100F10002F910F900FBE0F901F9018958081F4CFE6
:100F20001F920F920FB60F9211242F933F934F935E
:100F30005F936F937F938F939F93AF93BF93EF9341
:100F4000FF938091B900887F803609F44AC0F0F59C
:100F5000883209F4A7C018F5803109F49BC0B8F4B1
:100F6000882309F4F9C0883009F494C0FF91EF9107
:100F7000BF91AF919F918F917F916F915F914F91B1
:100F80003F912F910F900FBE0F901F9018958831B1
:100F900009F488C0803251F78093420314C0803432
:100FA00009F49DC040F48033B9F38833F9F6809397
:100FB000420385ECB0C0803509F485C0883509F45A
:100FC00096C0883499F60E94B606D0CF883909F4C5
:100FD0008CC038F5883729F050F4883611F0803706
:100FE00029F683E08093440310921D0357C088388C
:100FF00009F47BC0803919F0803809F0B7CF8091AF
:101000001D03803208F071C0E0911D0381E08E0F56
:1010100080931D038091BB00F0E0E350FD4F80837F
:101020003DC0803B39F0E0F4803A09F479C0883A59
:1010300009F09CCF84E0809344031092FC0210924C
:10104000FB02E0916E03F0916F0309958091FB0222
:1010500081110FC081E08093FB021092DB0209C076
:10106000803C09F4A6CF883C09F4A3CF883B09F063
:101070007DCFE091FC0281E08E0F8093FC02F0E0D6
:10108000E552FD4F80818093BB009091FC028091DE
:10109000FB0229C080911F038093BB0085EC8093E5
:1010A000BC0064CF9091410380914003981758F59C
:1010B000E091410381E08E0F80934103F0E0E05E18
:1010C000FC4F8081E9CFE091410381E08E0F809356
:1010D00041038091BB00F0E0E05EFC4F8083909183
:1010E0004103809140039817C8F285E8D8CFE0917A
:1010F000410381E08E0F809341038091BB00F0E0BB
:10110000E05EFC4F80838091430381115CCF81E0DE
:1011100080931E0384EA8093BC001092440326CF80
:1011200085EC8093BC001092440380911D038032B3
:1011300030F4E0911D03F0E0E350FD4F1082609128
:101140001D0370E0E0916C03F0916D038DEF92E070
:10115000099510921D030ACF1092420334CF1F92BB
:101160000F920FB60F9211242F933F934F935F93DB
:101170006F937F938F939F93AF93BF93EF93FF935F
:10118000E0917603F0917703309749F0A685B78513
:101190008585968D91FF14C09C918923A1F4FF91C0
:1011A000EF91BF91AF919F918F917F916F915F91DF
:1011B0004F913F912F910F900FBE0F901F90189558
:1011C0009C91892361F7A389B4899C918589809535
:1011D00089238C93868997890197F1F7608D718DAA
:1011E000A685B785558538E020E0CB010197F1F75A
:1011F000822F90E095958795282F4C91452309F0F3
:101200002068315091F7868D81FD2095809175037E
:1012100090E001968F73992730917403381799F0F5
:10122000A0917503B0E0A658BD4F2C938093750331
:10123000828D938D0197F1F7A389B4898C9195895B
:10124000892B8C93ACCF868D8160868FF1CF1092E5
:1012500084031092830388EE93E0A0E0B0E08093D3
:10126000850390938603A0938703B09388032CE0B3
:1012700031E0309382032093810325EC30E03093FA
:101280008E0320938D0324EC30E030939003209361
:101290008F0320EC30E0309392032093910321ECF4
:1012A00030E0309394032093930322EC30E03093AA
:1012B00096032093950326EC30E030939803209317
:1012C000970310929A0310929B0310929C03109222
:1012D0009D03109221041092200480932204909385
:1012E0002304A0932404B09325042EE131E030932D
:1012F0001F0420931E0410927104109270048093B6
:10130000720490937304A0937404B09375048CE3F7
:1013100091E090936F0480936E0410928504109274
:10132000840410928704109286041092890410920B
:10133000880410928B0410928A0460918C046E7F52
:101340006D7F60938C046695617081E0682783E00F
:101350000E94400161E083E00E948C01E1EBF0E03B
:10136000E491E0937E04EDE9F0E0E491F0E0EE0F2B
:10137000FF1FE057FF4F85919491909380048093D5
:101380007F0460E082E00E948C0180918C0481FDEA
:1013900004C061E082E00E9440018EE694E022E019
:1013A00020937A04E0EBF0E0E491E0937B04ECE935
:1013B000F0E0E491F0E0EE0FFF1FEA57FF4F459198
:1013C000549150937D0440937C04109265041092D4
:1013D000640440E351E0509363044093620437E2B5
:1013E0003093660430E130936B0420936C041092C8
:1013F0006D04109231041092300410923304109254
:10140000320420E430E03093350420933404109209
:101410003704109236044FEF5FEFBA01409338045F
:101420005093390460933A0470933B0430933D0425
:1014300020933C0420E031EE30933F0420933E049F
:1014400010924004109241041092420410924304FE
:1014500040934404509345046093460470934704BA
:10146000109261041092600490935F0480935E0474
:1014700090935D0480935C040895CF93DF93CDB780
:10148000DEB7CF54D1090FB6F894DEBF0FBECDBF83
:10149000789484B5826084BD84B5816084BD85B54F
:1014A000826085BD85B5816085BD80916E0081605B
:1014B00080936E0010928100809181008260809301
:1014C0008100809181008160809381008091800003
:1014D0008160809380008091B10084608093B1002E
:1014E0008091B00081608093B00080917A00846028
:1014F00080937A0080917A00826080937A00809154
:101500007A00816080937A0080917A00806880936D
:101510007A001092C100E0919103F091920382E071
:101520008083E0918D03F0918E031082E0918F0310
:10153000F09190038FEC808310929903E0919503D2
:10154000F091960386E08083E0919303F0919403F9
:10155000808180618083E0919303F0919403808186
:1015600088608083E0919303F09194038081806888
:101570008083E0919303F091940380818F7D808339
:101580001092730310927203109271031092700301
:101590000E94CE0387E992E090936F0380936E03DD
:1015A00088E992E090936D0380936C031092670436
:1015B00080916C04823018F098E0909367048093D7
:1015C0006A0462E370E080E090E00E94E2016091D2
:1015D0006D0482E694E00E94930468EE73E080E07C
:1015E00090E00E94E20160E382E694E00E94280617
:1015F0000BE416E4C8010197F1F760E382E694E09A
:101600000E942806C8010197F1F760E382E694E0A2
:101610000E94280683E592E00197F1F760E282E6F6
:1016200094E00E94280660916704606240E082E6D0
:1016300094E00E94410684E08093680440E06CE0FE
:1016400082E694E00E94410640E061E082E694E098
:101650000E9441060BE31FE1C8010197F1F772E018
:10166000F72EF092690440E066E082E694E00E9482
:10167000410640E062E082E694E00E944106C80133
:101680000197F1F788E080936D0460E082E694E0D2
:101690000E94930468EE73E080E090E00E94E20113
:1016A000E0916004F0916104309739F1A089B1892B
:1016B000FC92A089B1891C92A485B5851C92A6854F
:1016C000B78580E18C93108EA489B58986E08C93D0
:1016D000A289B3898C9180618C93A289B3898C9102
:1016E00088608C93A289B3898C9180688C930288DE
:1016F000F389E02D80818F7D8083E0915E04F091FD
:101700005F04309709F477C0138E128E118E108EFD
:10171000178A168A82E490E0958F848F84858631BB
:1017200008F03DC02FE030E0378B268B20E430E01E
:10173000318F208F27E230E0338F228F9091680025
:10174000883008F4D5C021E08E3008F420E081E034
:1017500001C0880F2A95EAF7892B80936800948549
:101760002DE630E0983050F02BE630E09E3030F03F
:101770002CE630E0963110F030E020E0348B238B03
:10178000292F30E0983008F0B5C081E001C0880F03
:101790009A95EAF7858B848D958D0197F1F7828D67
:1017A000938D892B41F14091760350917703E41793
:1017B000F50709F14115510569F0DA0153962D91AC
:1017C0003C91D9019C91DA0155968C9180958923A1
:1017D000D9018C93868D8E7F868F1092750310921F
:1017E0007403F0937703E0937603A389B4898C9113
:1017F0009589892B8C9361E084E00E948C0160E0E4
:1018000084E00E94400165E070E080E090E00E948A
:10181000E20161E085E00E948C0160E085E00E94C9
:10182000400165E070E080E090E00E94E20190916C
:10183000400420914104309142044091430461E00E
:101840007FEE7A83698381E08F8365E070E079873A
:1018500068878FEF8B838C838D838E8383E18A8768
:101860004B873C872D879E87CE0101960E948D0075
:10187000CE0101960E941402882309F448C080E03A
:101880000E9458068DE491E00E949E068DE491E04E
:101890000E94A30681E00E94580680E691E00E9423
:1018A0009E0680E691E00E94A30660ED77E080E06E
:1018B00090E00E94E20180E00E94580687E691E0F5
:1018C0000E949E0687E691E00E94A30681E00E94A6
:1018D000580688E791E00E949E0688E791E00E9402
:1018E000A30661E070E080E090E00E94E201F9CFA1
:1018F00084E032CF9E3040F42850310981E001C0AD
:10190000880F2A95EAF746CF2E503109F7CF8F81FD
:10191000873009F0B4CF8A858111B1CF0E94580673
:1019200089E891E00E949E0689E891E00E94A30662
:1019300081E00E94580689E991E00E949E0689E9AB
:1019400091E00E94A30668EB7BE080E090E00E94BB
:10195000E20101E01FEE66246394712C3BE3C32E89
:101960003FE1D32E40E0E42E40E0F42E52E0A52EDD
:10197000B12C66E0862E912C55245A9482E0382EA4
:1019800094E0292E80E00E9458068AEA91E00E94A5
:101990009E068AEA91E00E94A30681E00E94580612
:1019A0008AEB91E00E949E068AEB91E00E94A306DA
:1019B0001A830983442443944F82798668865B8224
:1019C0005C825D825E824A86CE0101960E948D0015
:1019D000CE0101960E941402811109C08F818730C7
:1019E00031F48A85823009F448C08823A9F080E068
:1019F0000E9458068CEC91E00E949E068CEC91E0CF
:101A00000E94A30681E00E94580660ED77E080E026
:101A100090E00E94E20131C01A8309834F82B986A7
:101A2000A8865B825C825D825E823A864B86CE01AE
:101A300001960E948D00CE0101960E941402811130
:101A400006C08F81873019F48A85882341F180E0B0
:101A50000E9458068DED91E00E949E068DED91E06A
:101A60000E94A30681E00E9458068EEE91E00E943B
:101A70009E068EEE91E00E94A30662E370E080E095
:101A800090E00E94E201E114F10409F47BCF0E948E
:101A90000303882309F472CF0E9400006DCF2E96B5
:101AA0001FAE1EAE2E9780913404909135041A8398
:101AB00009834F82998688865B825C825D825E8222
:101AC0002B962FAE2B972C964FAE2C972F969FAF21
:101AD0002F9760968FAF609786E0FE01E65BFF4F21
:101AE000DE011A9601900D928A95E1F7CE010196DA
:101AF0000E948D00CE0101960E941402811155C0F2
:101B00008F81873009F051C08B859C859827892764
:101B1000982790932B0480932A048D859E8598277F
:101B20008927982790932D0480932C048A8581110E
:101B30003AC040E061E082E694E00E944106C601BE
:101B40000197F1F780E00E9458068AEF91E00E9429
:101B50009E068AEF91E00E94A30681E00E9458064B
:101B60008AE092E00E949E068AE092E00E94A3062C
:101B700060E085E00E94400161E084E00E94400155
:101B800068E873E180E090E00E94E20160E084E0B8
:101B90000E94400160E084E00E94400160E085E036
:101BA0000E9440016ACF8130B9F480E00E9458065B
:101BB00086E192E00E949E0686E192E00E94A306E2
:101BC00081E00E94580687E292E00E949E0687E22A
:101BD00092E00E94A30619CF8930E9F480E00E94C8
:101BE000580688E392E00E949E0681E00E94580613
:101BF00089E492E00E949E0689E492E00E94A30696
:101C000061E085E00E94400168EB7BE080E090E0CD
:101C10000E94E201C3CF80E00E94580687E592E06F
:101C20000E949E0687E592E00E94A30681E00E9442
:101C3000580689E692E00E949E0689E692E0C9CFA6
:101C40008CE391E090936F0480936E04809176030F
:101C5000909177038E56944071F4E0918104F09155
:101C600082049081809183048095892380831092DF
:101C70007703109276030895EE0FFF1F0590F491FD
:101C8000E02D099410E0C2E6D0E004C0FE010E94FD
:0E1C90003C0E2196C336D107C9F7F894FFCF5A
:101C9E0000004000140054000000000039039902B7
:101CAE00C6028603F702D502E902000000006404B2
:101CBE00370425060D0430041D040E040000000038
:101CCE00890699022506A6030000000092059902D6
:101CDE0025060D04EE0504067A050D0A00556E6103
:101CEE00626C6520746F20666F756E642020200014
:101CFE0053656E736F7200506C6561736520436837
:101D0E0065636B2020202000202053656E736F7258
:101D1E0020576972696E672000202046696E6765DC
:101D2E0072205072696E74200053656E736F72204C
:101D3E00436F6E6E656374656400506C61636520FD
:101D4E0066696E6765722E2E2E00202020737461D8
:101D5E007274207363616E20202020005363616EC5
:101D6E00204572726F722020202020200050726F4A
:101D7E0063657373696E67204572726F72002054CB
:101D8E00727920416761696E20002020446F6F7266
:101D9E0020556E6C6F636B656400202020205765A4
:101DAE006C636F6D6500436F6D6D204572726F725F
:101DBE002020202020200020202020202020202035
:101DCE00202020202020200041636365737320446F
:101DDE00656E69656420202000446F6F7220697300
:101DEE00204C6F636B2E004572726F7220696E20ED
:101DFE006D61746368696E67004E6F742056616C16
:0A1E0E0069642046696E6765720082
:00000001FF
